:0F800000D2B3D2B2D2B5D2B47481F59012803817
:0F800F007400F590C2B5C2B4128038C2B5D2B4B5
:0F801E00128038780079007A007B00780278674A
:10802D0079777A4F7B79115802802BC2B200D2B288
:0F803D000022C2B5D2B4001138227590FFC2B52F
:0F804C00D2B400C2B300E590D2B30022E8F590A1
:10805B00C2B5C2B411387401F590C2B4D2B511389F
:10806B001280C97400F5901138E9F590C2B5C2B40D
:0F807B0011387402F590C2B4D2B511381280C911
:0F808A007400F5901138EAF590C2B5C2B4113800
:0F8099007404F590C2B4D2B511381280C97400C6
:0F80A800F5901138EBF590C2B5C2B411387408D9
:0F80B700F590C2B4D2B511381280C97400F5909B
:0980C60011382274FFD5E0FD22FF
:00000001FF
